:100000000C942A000C9434000C9434000C943400AA
:100010000C9434000C9434000C9434000C94340090
:100020000C9434000C9434000C9434000C94340080
:100030000C9434000C9434000C9434000C94340070
:100040000C9434000C9434000C9434000C94340060
:100050000C94340011241FBECFE5D8E0DEBFCDBF25
:100060000E9401030C946C030C9400000F931F93E7
:10007000182F80E060E041E00E94210280E061E012
:1000800040E00E94210282E0612F0E94C50280E0D0
:1000900062E041E00E94210200ED17E0C8010197F3
:1000A000F1F780E062E040E00E942102C801019780
:1000B000F1F71F910F910895883010F40E943600D7
:1000C0000895AF92BF92CF92DF92EF92FF920F937B
:1000D0001F93DF93CF93CDB7DEB72D970FB6F8946C
:1000E000DEBF0FBECDBF6B017C01FE0131968BE000
:1000F000DF011D928A95E9F710E05F011DC0F5014F
:10010000E10FF11DFD87EC87C701B6012AE030E061
:1001100040E050E00E942F03AC85BD856C93C70181
:10012000B6012AE030E040E050E00E942F03C90110
:10013000DA016C017D011F5F1C141D041E041F04E5
:10014000F4F2012F0150E02EFF24E7FCF094EA0CBA
:10015000FB1C09C0F7018081805D0E9436000150C0
:100160000894E108F10807FFF5CF2D960FB6F89433
:10017000DEBF0FBECDBFCF91DF911F910F91FF90DA
:10018000EF90DF90CF90BF90AF9008950F931F93A3
:10019000CF93DF93EC0108EC10E00AC00E94360018
:1001A00088EB9BE0F8013197F1F70197D9F7219699
:1001B0008881882399F7DF91CF911F910F9108953E
:1001C0000F931F93182F80E060E040E00E9421020F
:1001D00080E061E040E00E94210282E0612F0E9405
:1001E000C50280E062E041E00E94210200ED17E0DC
:1001F000C8010197F1F780E062E040E00E9421022F
:10020000C8010197F1F71F910F910895882319F004
:10021000813061F406C06F70862F80580E94E00024
:1002200008956F70862F80540E94E00008950F9308
:100230001F93CF93DF938B018830A8F4880F880F2A
:10024000880F805C0E94E000C0E0D0E0F801EC0F75
:10025000FD1F80810E9436002196C830D105B1F77C
:1002600080E80E94E000DF91CF911F910F910895E7
:1002700081E00E94E00008950F931F9380E060E00A
:1002800041E00E94AE0180E061E041E00E94AE01E9
:1002900080E062E041E00E94AE0182E06FEF0E94E8
:1002A000B40288EE93E028EC30E0F9013197F1F7E1
:1002B0000197D9F788E30E94E00000ED17E0C8013C
:1002C0000197F1F78CE00E94E000C8010197F1F777
:1002D00081E00E94E00080E797E10197F1F786E076
:1002E0000E94E00080E197E20197F1F71F910F91E2
:1002F0000895813091F0813028F08230C9F0833048
:1003000061F521C02BB381E090E002C0880F991FF6
:100310006A95E2F728272BBB089528B381E090E087
:1003200002C0880F991F6A95E2F7282728BB089515
:1003300025B381E090E002C0880F991F6A95E2F72B
:10034000282725BB089522B381E090E002C0880FE2
:10035000991F6A95E2F7282722BB08954130B1F52D
:10036000813099F0813030F08230D1F0833009F063
:1003700067C021C02AB381E090E002C0880F991FB6
:100380006A95E2F7282B2ABB089527B381E090E015
:1003900002C0880F991F6A95E2F7282B27BB0895A2
:1003A00024B381E090E002C0880F991F6A95E2F7BC
:1003B000282B24BB089521B381E090E002C0880F70
:1003C000991F6A95E2F7282B21BB08954423C1F5B4
:1003D000813099F0813028F08230D9F0833081F576
:1003E00024C02AB381E090E002C0880F991F6A956B
:1003F000E2F7809582238ABB089527B381E090E0DD
:1004000002C0880F991F6A95E2F78095822387BB07
:10041000089524B381E090E002C0880F991F6A9587
:10042000E2F78095822384BB089521B381E090E0B8
:1004300002C0880F991F6A95E2F78095822381BBDD
:1004400008954130B1F5813099F0813030F082303B
:10045000D1F0833009F067C021C02BB381E090E078
:1004600002C0880F991F6A95E2F7282B2BBB0895CD
:1004700028B381E090E002C0880F991F6A95E2F7E7
:10048000282B28BB089525B381E090E002C0880F97
:10049000991F6A95E2F7282B25BB089522B381E0C6
:1004A00090E002C0880F991F6A95E2F7282B22BBC3
:1004B00008954423C1F5813099F0813028F08230CD
:1004C000D9F0833081F524C02BB381E090E002C0E5
:1004D000880F991F6A95E2F7809582238BBB089558
:1004E00028B381E090E002C0880F991F6A95E2F777
:1004F0008095822388BB089525B381E090E002C0F7
:10050000880F991F6A95E2F78095822385BB08952D
:1005100022B381E090E002C0880F991F6A95E2F74C
:100520008095822382BB0895813051F0813030F074
:10053000823041F0833079F080E0089589B303C0C0
:1005400086B301C083B390E002C0959587956A9504
:10055000E2F78170089580B390E002C09595879589
:100560006A95E2F781700895813049F0813028F072
:10057000823039F0833041F406C06ABB089567BB0E
:10058000089564BB089561BB0895813049F08130BE
:1005900028F0823039F0833041F406C06BBB0895F7
:1005A00068BB089565BB089562BB0895813051F022
:1005B000813030F0823041F0833041F080E00895A6
:1005C00089B3089586B3089583B3089580B30895D9
:1005D0003E9A3D983598339886B1887F86B986B122
:1005E000866086B9379A089597B1907E982B97B90F
:1005F000369A349BFECF349A24B135B1C90108959F
:100600000895EF92FF920F931F93CF93DF930E9471
:100610003C010E94E80294EFE92E91E0F92EC8EC2B
:10062000D0E080E00E94F4028C0181E00E94E000B2
:100630000E9DB0010F9D700D1E9D700D1124672F32
:1006400077276695669580E090E00E94610080E1E2
:1006500097E2FE013197F1F70197D9F7E2CF97FBC7
:10066000092E05260ED057FD04D014D00AD0001C48
:1006700038F450954095309521953F4F4F4F5F4F3F
:100680000895F6F790958095709561957F4F8F4FFF
:100690009F4F0895A1E21A2EAA1BBB1BFD010DC09E
:1006A000AA1FBB1FEE1FFF1FA217B307E407F50722
:1006B00020F0A21BB30BE40BF50B661F771F881FFE
:1006C000991F1A9469F760957095809590959B0194
:0C06D000AC01BD01CF010895F894FFCFEC
:00000001FF
