:100000000C942A000C9434000C9434000C943400AA
:100010000C9434000C9434000C9434000C94340090
:100020000C9434000C9434000C9434000C94340080
:100030000C9434000C9434000C9434000C94340070
:100040000C9434000C9434000C9434000C94340060
:100050000C94340011241FBECFE5D8E0DEBFCDBF25
:100060000E9451030C94A1030C9400000F931F9362
:10007000182F80E060E041E00E948A0280E061E0A9
:1000800040E00E948A0282E0612F0E942E0380E0FD
:1000900062E041E00E948A0200ED17E0C80101978A
:1000A000F1F780E062E040E00E948A02C801019717
:1000B000F1F71F910F910895883010F40E943600D7
:1000C0000895AF92BF92DF92EF92FF920F931F932A
:1000D000DF93CF93CDB7DEB7AC970FB6F894DEBF02
:1000E0000FBECDBF7B018C01FE0131968CE2DF019A
:1000F0001D928A95E9F75F01DD241BC0C801B70195
:100100002AE030E040E050E00E946403F501619392
:100110007193819391935F01C801B7012AE030E0A8
:1001200040E050E00E946403C901DA017C018D01C6
:10013000D3941E141F041006110604F3FD2CFA9428
:100140008F2D992787FD9095880F991F880F991FEC
:100150008E010F5F1F4F080F191F08C0D8018C9127
:10016000805D0E943600FA9404501040F7FEF6CFEE
:10017000AC960FB6F894DEBF0FBECDBFCF91DF9126
:100180001F910F91FF90EF90DF90BF90AF90089577
:100190000F931F93CF93DF93EC0108EC10E00AC09C
:1001A0000E94360088EB9BE0F8013197F1F7019748
:1001B000D9F721968881882399F7DF91CF911F91F4
:1001C0000F9108950F931F93182F80E060E040E097
:1001D0000E948A0280E061E040E00E948A0282E0A0
:1001E000612F0E942E0380E062E041E00E948A02BB
:1001F00000ED17E0C8010197F1F780E062E040E010
:100200000E948A02C8010197F1F71F910F9108958A
:10021000662319F0613041F404C080580E94E20066
:10022000089580540E94E20008950F931F93CF9386
:10023000DF938B018830A8F4880F880F880F805CCB
:100240000E94E200C0E0D0E0F801EC0FFD1F8081C9
:100250000E9436002196C830D105B1F780E80E948F
:10026000E200DF91CF911F910F91089581E00E94EC
:10027000E20008950F931F9380E060E041E00E9448
:10028000170280E061E041E00E94170280E062E036
:1002900041E00E94170282E06FEF0E941D0388EE8A
:1002A00093E028EC30E0F9013197F1F70197D9F7A5
:1002B00088E30E94E20000ED17E0C8010197F1F722
:1002C0008CE00E94E200C8010197F1F781E00E94F2
:1002D000E20080E797E10197F1F786E00E94E200F3
:1002E00080E197E20197F1F71F910F9108954F92E6
:1002F0005F926F927F928F929F92AF92BF92CF92B6
:10030000DF92EF92FF920F931F93CF93DF93AA2474
:10031000BB24650194E0492E81E0682E712C812C6C
:10032000912CC0E2DEE481E0642D40E00E948A026C
:1003300084017301552481E0652D0E94FD0288230C
:1003400011F45701680181E0652D0E94FD028823A8
:10035000D1F3CE010197F1F753940894E11CF11CFD
:10036000011D111D84E0581631F781E0642D41E034
:100370000E948A02439484E090E0A0E0B0E0680E1E
:10038000791E8A1E9B1E98E0491669F6B501C601C2
:10039000DF91CF911F910F91FF90EF90DF90CF9061
:1003A000BF90AF909F908F907F906F905F904F9095
:1003B000089581E060EF0E941D0381E06FEF0E94CD
:1003C0002E030895813091F0813028F08230C9F0F9
:1003D000833061F521C02BB381E090E002C0880F2B
:1003E000991F6A95E2F728272BBB089528B381E06F
:1003F00090E002C0880F991F6A95E2F7282728BB72
:10040000089525B381E090E002C0880F991F6A9596
:10041000E2F7282725BB089522B381E090E002C0CF
:10042000880F991F6A95E2F7282722BB089541306B
:10043000B1F5813099F0813030F08230D1F08330E5
:1004400009F067C021C02AB381E090E002C0880FA4
:10045000991F6A95E2F7282B2ABB089527B381E0FC
:1004600090E002C0880F991F6A95E2F7282B27BBFE
:10047000089524B381E090E002C0880F991F6A9527
:10048000E2F7282B24BB089521B381E090E002C05D
:10049000880F991F6A95E2F7282B21BB0895442302
:1004A000C1F5813099F0813028F08230D9F0833065
:1004B00081F524C02AB381E090E002C0880F991F23
:1004C0006A95E2F7809582238ABB089527B381E07D
:1004D00090E002C0880F991F6A95E2F78095822309
:1004E00087BB089524B381E090E002C0880F991F74
:1004F0006A95E2F78095822384BB089521B381E059
:1005000090E002C0880F991F6A95E2F780958223D8
:1005100081BB08954130B1F5813099F0813030F0E0
:100520008230D1F0833009F067C021C02BB381E065
:1005300090E002C0880F991F6A95E2F7282B2BBB29
:10054000089528B381E090E002C0880F991F6A9552
:10055000E2F7282B28BB089525B381E090E002C084
:10056000880F991F6A95E2F7282B25BB089522B3BF
:1005700081E090E002C0880F991F6A95E2F7282B6E
:1005800022BB08954423C1F5813099F0813028F0D1
:100590008230D9F0833081F524C02BB381E090E024
:1005A00002C0880F991F6A95E2F7809582238BBB62
:1005B000089528B381E090E002C0880F991F6A95E2
:1005C000E2F78095822388BB089525B381E090E00F
:1005D00002C0880F991F6A95E2F78095822385BB38
:1005E000089522B381E090E002C0880F991F6A95B8
:1005F000E2F78095822382BB0895813051F08130EB
:1006000030F0823041F0833079F080E0089589B392
:1006100003C086B301C083B390E002C0959587956F
:100620006A95E2F78170089580B390E002C09595D5
:1006300087956A95E2F781700895813049F081309D
:1006400028F0823039F0833041F406C06ABB089547
:1006500067BB089564BB089561BB0895813049F07C
:10066000813028F0823039F0833041F406C06BBB12
:10067000089568BB089565BB089562BB08958130F5
:1006800051F0813030F0823041F0833041F080E031
:10069000089589B3089586B3089583B3089580B308
:1006A00008950E94D9010E943A0180E060E041E093
:1006B0000E9417020E94770161157105810591055D
:1006C000C9F30E946100F6CF97FB092E05260ED0D4
:1006D00057FD04D014D00AD0001C38F45095409532
:1006E000309521953F4F4F4F5F4F0895F6F7909506
:1006F0008095709561957F4F8F4F9F4F0895A1E230
:100700001A2EAA1BBB1BFD010DC0AA1FBB1FEE1F8B
:10071000FF1FA217B307E407F50720F0A21BB30BD6
:10072000E40BF50B661F771F881F991F1A9469F752
:1007300060957095809590959B01AC01BD01CF01AE
:060740000895F894FFCFBC
:00000001FF
