:100000000C942A000C943F000C943F000C943F0089
:100010000C943F000C943F000C943F000C943F0064
:100020000C943F000C943F000C943F000C943F0054
:100030000C943F000C943F000C943F000C943F0044
:100040000C943F000C943F000C943F000C943F0034
:100050000C943F0011241FBECFE5D8E0DEBFCDBF1A
:1000600010E0A0E6B0E0E4E2F7E002C005900D92F7
:10007000A038B107D9F70E94EE020C9490030C94BB
:1000800000000F931F93182F80E060E041E00E9472
:10009000270280E061E040E00E94270282E0612FB9
:1000A0000E94CB0280E062E041E00E94270200ED66
:1000B00017E0C8010197F1F780E062E040E00E949C
:1000C0002702C8010197F1F71F910F910895883019
:1000D00010F40E9441000895AF92BF92CF92DF9238
:1000E000EF92FF920F931F93DF93CF93CDB7DEB7BD
:1000F0002B970FB6F894DEBF0FBECDBF7B018C01EE
:100100005E010894A11CB11C8BE0F50111928A9547
:10011000E9F7650117C0C801B7012AE030E040E007
:1001200050E00E945303F60161936F01C801B701CB
:100130002AE030E040E050E00E945303C901DA01B8
:100140007C018D018C2D8A191E141F0410061106C6
:1001500014F3F82EFA948F2D992787FD90958E0130
:100160000F5F1F4F080F191F08C0F8018081805DC5
:100170000E944100FA9401501040F7FEF6CF2B96F2
:100180000FB6F894DEBF0FBECDBFCF91DF911F91A8
:100190000F91FF90EF90DF90CF90BF90AF900895B8
:1001A0000F931F93CF93DF93EC0108EC10E00AC08C
:1001B0000E94410088EB9BE0F8013197F1F701972D
:1001C000D9F721968881882399F7DF91CF911F91E4
:1001D0000F9108950F931F93182F80E060E040E087
:1001E0000E94270280E061E040E00E94270282E056
:1001F000612F0E94CB0280E062E041E00E94270272
:1002000000ED17E0C8010197F1F780E062E040E0FF
:100210000E942702C8010197F1F71F910F910895DD
:10022000662319F0613041F404C080580E94EA004E
:10023000089580540E94EA0008950F931F93CF936E
:10024000DF938B018830A8F4880F880F880F805CBB
:100250000E94EA00C0E0D0E0F801EC0FFD1F8081B1
:100260000E9441002196C830D105B1F780E80E9474
:10027000EA00DF91CF911F910F91089581E00E94D4
:10028000EA0008950F931F9380E060E041E00E9430
:10029000B40180E061E041E00E94B40180E062E0EE
:1002A00041E00E94B40182E06FEF0E94BA0288EE42
:1002B00093E028EC30E0F9013197F1F70197D9F795
:1002C00088E30E94EA0000ED17E0C8010197F1F70A
:1002D0008CE00E94EA00C8010197F1F781E00E94DA
:1002E000EA0080E797E10197F1F786E00E94EA00D3
:1002F00080E197E20197F1F71F910F910895813006
:1003000091F0813028F08230C9F0833061F521C04E
:100310002BB381E090E002C0880F991F6A95E2F745
:1003200028272BBB089528B381E090E002C0880FF6
:10033000991F6A95E2F7282728BB089525B381E025
:1003400090E002C0880F991F6A95E2F7282725BB25
:10035000089522B381E090E002C0880F991F6A954A
:10036000E2F7282722BB08954130B1F5813099F09A
:10037000813030F08230D1F0833009F067C021C085
:100380002AB381E090E002C0880F991F6A95E2F7D6
:10039000282B2ABB089527B381E090E002C0880F84
:1003A000991F6A95E2F7282B27BB089524B381E0B3
:1003B00090E002C0880F991F6A95E2F7282B24BBB2
:1003C000089521B381E090E002C0880F991F6A95DB
:1003D000E2F7282B21BB08954423C1F5813099F021
:1003E000813028F08230D9F0833081F524C02AB3DF
:1003F00081E090E002C0880F991F6A95E2F780952E
:1004000082238ABB089527B381E090E002C0880F61
:10041000991F6A95E2F78095822387BB089524B3DC
:1004200081E090E002C0880F991F6A95E2F78095FD
:10043000822384BB089521B381E090E002C0880F3D
:10044000991F6A95E2F78095822381BB0895413018
:10045000B1F5813099F0813030F08230D1F08330C5
:1004600009F067C021C02BB381E090E002C0880F83
:10047000991F6A95E2F7282B2BBB089528B381E0DA
:1004800090E002C0880F991F6A95E2F7282B28BBDD
:10049000089525B381E090E002C0880F991F6A9506
:1004A000E2F7282B25BB089522B381E090E002C03B
:1004B000880F991F6A95E2F7282B22BB08954423E1
:1004C000C1F5813099F0813028F08230D9F0833045
:1004D00081F524C02BB381E090E002C0880F991F02
:1004E0006A95E2F7809582238BBB089528B381E05B
:1004F00090E002C0880F991F6A95E2F780958223E9
:1005000088BB089525B381E090E002C0880F991F51
:100510006A95E2F78095822385BB089522B381E036
:1005200090E002C0880F991F6A95E2F780958223B8
:1005300082BB0895813051F0813030F0823041F03B
:10054000833079F080E0089589B303C086B301C099
:1005500083B390E002C0959587956A95E2F7817024
:10056000089580B390E002C0959587956A95E2F76B
:1005700081700895813049F0813028F0823039F05F
:10058000833041F406C06ABB089567BB089564BB1D
:10059000089561BB0895813049F0813028F08230A0
:1005A00039F0833041F406C06BBB089568BB0895F1
:1005B00065BB089562BB0895813051F0813030F001
:1005C000823041F0833041F080E0089589B308958E
:1005D00086B3089583B3089580B30895DF93CF93CE
:1005E000CDB7DEB7A0970FB6F894DEBF0FBECDBF74
:1005F000DE011196E8E7F0E088E001900D9281506D
:10060000E1F7DE011996E0E7F0E088E001900D9255
:100610008150E1F7DE015196E8E6F0E088E00190D4
:100620000D928150E1F7DE015996E0E6F0E088E0B6
:1006300001900D928150E1F70E94420180E0BE01DD
:100640006F5F7F4F0E941D018FE060E00E941001EC
:1006500080E00E94670080E0BE01675F7F4F0E94DC
:100660001D018EE060E00E94100180E00E946700A2
:1006700080E0BE016F5E7F4F0E941D018DE060E053
:100680000E94100180E00E94670080E0BE01675E6A
:100690007F4F0E941D018CE060E00E94100180E00D
:1006A0000E946700FFCF97FB092E05260ED057FD4D
:1006B00004D014D00AD0001C38F4509540953095E1
:1006C00021953F4F4F4F5F4F0895F6F790958095D6
:1006D000709561957F4F8F4F9F4F0895A1E21A2E1D
:1006E000AA1BBB1BFD010DC0AA1FBB1FEE1FFF1FD6
:1006F000A217B307E407F50720F0A21BB30BE40B26
:10070000F50B661F771F881F991F1A9469F760956C
:100710007095809590959B01AC01BD01CF01089526
:04072000F894FFCF7B
:1007240000000402011F000000000000001F0A0E68
:100734000000000E011E000006040E000404040460
:00000001FF
