:100000000C942A000C943F000C943F000C943F0089
:100010000C943F000C943F000C943F000C943F0064
:100020000C943F000C943F000C943F000C943F0054
:100030000C943F000C943F000C943F000C943F0044
:100040000C943F000C943F000C943F000C943F0034
:100050000C943F0011241FBECFE5D8E0DEBFCDBF1A
:1000600010E0A0E6B0E0E8E4F3E002C005900D92F5
:10007000AA36B107D9F70E948B010C94A2010C9407
:1000800000008A3040F4E82FF0E0E05AFF4F80E0B3
:1000900060810E946801089580E06FEF0E9457011F
:1000A00008954130B1F5813099F0813030F08230DF
:1000B000D1F0833009F067C021C02AB381E090E01D
:1000C00002C0880F991F6A95E2F7282B2ABB089572
:1000D00027B381E090E002C0880F991F6A95E2F78C
:1000E000282B27BB089524B381E090E002C0880F3D
:1000F000991F6A95E2F7282B24BB089521B381E06C
:1001000090E002C0880F991F6A95E2F7282B21BB67
:1001100008954423C1F5813099F0813028F0823070
:10012000D9F0833081F524C02AB381E090E002C089
:10013000880F991F6A95E2F7809582238ABB0895FC
:1001400027B381E090E002C0880F991F6A95E2F71B
:100150008095822387BB089524B381E090E002C09C
:10016000880F991F6A95E2F78095822384BB0895D2
:1001700021B381E090E002C0880F991F6A95E2F7F1
:100180008095822381BB08954130B1F5813099F08B
:10019000813030F08230D1F0833009F067C021C067
:1001A0002BB381E090E002C0880F991F6A95E2F7B7
:1001B000282B2BBB089528B381E090E002C0880F64
:1001C000991F6A95E2F7282B28BB089525B381E093
:1001D00090E002C0880F991F6A95E2F7282B25BB93
:1001E000089522B381E090E002C0880F991F6A95BC
:1001F000E2F7282B22BB08954423C1F5813099F002
:10020000813028F08230D9F0833081F524C02BB3BF
:1002100081E090E002C0880F991F6A95E2F780950F
:1002200082238BBB089528B381E090E002C0880F41
:10023000991F6A95E2F78095822388BB089525B3BC
:1002400081E090E002C0880F991F6A95E2F78095DF
:10025000822385BB089522B381E090E002C0880F1D
:10026000991F6A95E2F78095822382BB08958130B9
:1002700051F0813030F0823041F0833079F080E00D
:10028000089589B303C086B301C083B390E002C070
:10029000959587956A95E2F78170089580B390E00F
:1002A00002C0959587956A95E2F78170089581302F
:1002B00049F0813028F0823039F0833041F406C0B3
:1002C0006ABB089567BB089564BB089561BB089538
:1002D000813049F0813028F0823039F0833041F4A8
:1002E00006C06BBB089568BB089565BB089562BBEB
:1002F0000895813051F0813030F0823041F0833008
:1003000041F080E0089589B3089586B3089583B3DA
:10031000089580B308951F93CF93DF930E944C00FC
:1003200010E0C8ECD0E0812F0E94410080E197E20C
:10033000FE013197F1F70197D9F71F5F163098F357
:0803400010E0F1CFF894FFCFAB
:0A034800FC0CDAF266B6BEE2FEF627
:00000001FF
