:100000000C942A000C944B000C943C000C943C0083
:100010000C943C000C943C000C943C000C943C0070
:100020000C943C000C943C000C943C000C943C0060
:100030000C943C000C943C000C943C000C943C0050
:100040000C943C000C943C000C943C000C943C0040
:100050000C943C0011241FBECFE5D8E0DEBFCDBF1D
:1000600010E0A0E6B0E001C01D92A236B107E1F7B2
:100070000E94F8010C940B020C94000085B7806874
:1000800085BF089585B78F7785BF089590936100E8
:100090008093600008951F920F920FB60F92112463
:1000A0002F933F934F935F936F937F938F939F9380
:1000B000AF93BF93EF93FF93E0916000F0916100E5
:1000C0000995FF91EF91BF91AF919F918F917F9192
:1000D0006F915F914F913F912F910F900FBE0F90B5
:1000E0001F90189508950895089583E062E040E018
:1000F0000E94BE0083E062E041E00E94310185B7CA
:10010000826085BF85B78E7F85BF8BB780648BBFCC
:100110000895813091F0813028F08230C9F0833029
:1001200061F521C02BB381E090E002C0880F991FD8
:100130006A95E2F728272BBB089528B381E090E069
:1001400002C0880F991F6A95E2F7282728BB0895F7
:1001500025B381E090E002C0880F991F6A95E2F70D
:10016000282725BB089522B381E090E002C0880FC4
:10017000991F6A95E2F7282722BB08954130B1F50F
:10018000813099F0813030F08230D1F0833009F045
:1001900067C021C02AB381E090E002C0880F991F98
:1001A0006A95E2F7282B2ABB089527B381E090E0F7
:1001B00002C0880F991F6A95E2F7282B27BB089584
:1001C00024B381E090E002C0880F991F6A95E2F79E
:1001D000282B24BB089521B381E090E002C0880F52
:1001E000991F6A95E2F7282B21BB08954423C1F596
:1001F000813099F0813028F08230D9F0833081F558
:1002000024C02AB381E090E002C0880F991F6A954C
:10021000E2F7809582238ABB089527B381E090E0BE
:1002200002C0880F991F6A95E2F78095822387BBE9
:10023000089524B381E090E002C0880F991F6A9569
:10024000E2F78095822384BB089521B381E090E09A
:1002500002C0880F991F6A95E2F78095822381BBBF
:1002600008954130B1F5813099F0813030F082301D
:10027000D1F0833009F067C021C02BB381E090E05A
:1002800002C0880F991F6A95E2F7282B2BBB0895AF
:1002900028B381E090E002C0880F991F6A95E2F7C9
:1002A000282B28BB089525B381E090E002C0880F79
:1002B000991F6A95E2F7282B25BB089522B381E0A8
:1002C00090E002C0880F991F6A95E2F7282B22BBA5
:1002D00008954423C1F5813099F0813028F08230AF
:1002E000D9F0833081F524C02BB381E090E002C0C7
:1002F000880F991F6A95E2F7809582238BBB08953A
:1003000028B381E090E002C0880F991F6A95E2F758
:100310008095822388BB089525B381E090E002C0D8
:10032000880F991F6A95E2F78095822385BB08950F
:1003300022B381E090E002C0880F991F6A95E2F72E
:100340008095822382BB0895813051F0813030F056
:10035000823041F0833079F080E0089589B303C0A2
:1003600086B301C083B390E002C0959587956A95E6
:10037000E2F78170089580B390E002C0959587956B
:100380006A95E2F781700895813049F0813028F054
:10039000823039F0833041F406C06ABB089567BBF0
:1003A000089564BB089561BB0895813049F08130A0
:1003B00028F0823039F0833041F406C06BBB0895D9
:1003C00068BB089565BB089562BB0895813051F004
:1003D000813030F0823041F0833041F080E0089588
:1003E00089B3089586B3089583B3089580B30895BB
:1003F00080E060E041E00E94BE000E94750086E05F
:1004000092E00E9446000E943E00FFCF80E060E044
:0A0410000E9489000895F894FFCFC0
:00000001FF
