:100000000C942A000C9434000C9434000C943400AA
:100010000C9434000C9434000C9434000C94340090
:100020000C9434000C9434000C9434000C94340080
:100030000C9434000C9434000C9434000C94340070
:100040000C9434000C9434000C9434000C94340060
:100050000C94340011241FBECFE5D8E0DEBFCDBF25
:100060000E9436000C9441000C9400008FEF8ABB74
:10007000D09AB898C09AB09902C0D89AFCCFD898B4
:06008000FACFF894FFCF57
:00000001FF
